:020000040000FA
:100000000C9462000C948A000C948A000C948A0070
:100010000C948A000C948A000C948A000C948A0038
:100020000C948A000C948A000C948A000C948A0028
:100030000C948A000C948A000C948A000C948A0018
:100040000C947B050C948A000C94EB050C94C5056C
:100050000C948A000C948A000C948A000C948A00F8
:100060000C948A000C948A000000000024002700F1
:100070002A0000000000250028002B0000000008D6
:10008000000201000003040700000000000000005F
:1000900000000000230026002900040404040404D6
:1000A0000404020202020202030303030303010227
:1000B00004081020408001020408102001020408F6
:1000C00010201D0611241FBECFEFD8E0DEBFCDBF2C
:1000D00011E0A0E0B1E0E2EBF8E102C005900D9282
:1000E000A638B107D9F722E0A6E8B1E001C01D9219
:1000F000AF33B207E1F710E0C2E6D0E004C02197C9
:10010000FE010E94510CC136D107C9F70E946A0650
:100110000C94570C0C940000CF92DF92EF92FF9258
:10012000CF93DF93C82F809132028C3009F45EC0E8
:1001300038F48B30F1F060E070E080EC9FE74FC066
:1001400085518230C0F7D0912E026D2F70E0762F4E
:10015000662766277F7780912F02682B90E080E0EA
:100160000E94AB0A2DEC3CEC4CEC5DE30E94620B70
:1001700059C060912E0270E090E080E00E94AB0ACE
:100180006B017C01D0912F02D7FF0AC0AC019B010B
:1001900060E070E080E89FEB0E9498096B017C01B1
:1001A000DF706D2F70E090E080E00E94AD0A2DECD2
:1001B0003CEC4CEC5DE30E94620BA70196010E94AF
:1001C0009909CC2361F026E636E646EE5FE30E940D
:1001D000620B20E030E040E052E40E949909DF9198
:1001E000CF91FF90EF90DF90CF900895D0912E02A5
:1001F0006D2F70E090E080E00E94AB0A6B017C0103
:1002000060912F026F7070E090E080E00E94AD0A74
:100210002DEC3CEC4CEC5DE30E94620BA7019601D7
:100220000E949909D7FFCDCF9058CBCFCF92DF92C4
:10023000EF92FF92CF93DF93B0913302A0E0811150
:10024000AB2F8091340290E0880F991FAC0140578A
:100250005F4FC0903902D0903A02E0903B02F0909C
:100260003C0230E020E0FA01C591D491E881B90167
:1002700090E080E0EB23EA130AC02F5F3F4F6C153C
:100280007D058E059F0578F36FEF7FEFCB01DF9142
:10029000CF91FF90EF90DF90CF900895CF93DF93B1
:1002A00090E0FC01E255FF4F249186569F4FFC01E0
:1002B00084918823D1F090E0880F991FFC01E859C0
:1002C000FF4FA591B491FC01EE58FF4FC591D49119
:1002D000623071F49FB7F8943C91822F809583230C
:1002E0008C93E8812E2B28839FBFDF91CF910895B7
:1002F0008FB7F894EC912E2B2C938FBFF6CF3FB78E
:10030000F8948091870190918801A0918901B09122
:100310008A0126B5A89B05C02F3F19F00196A11DA3
:10032000B11D3FBFBA2FA92F982F8827BC01CD013F
:10033000620F711D811D911D42E0660F771F881F9E
:10034000991F4A95D1F708958F929F92AF92BF92CD
:10035000CF92DF92EF92FF924B015C010E947F01EE
:100360006B017C010E947F016C197D098E099F0938
:10037000683E734081059105A8F321E0821A910837
:10038000A108B10888EEC80E83E0D81EE11CF11C5C
:1003900081149104A104B10429F7FF90EF90DF903C
:1003A000CF90BF90AF909F908F9008958F929F9223
:1003B000AF92BF92EF92FF920F931F93CF93DF9371
:1003C000CDB7DEB7C054D1400FB6F894DEBF0FBE34
:1003D000CDBF2FB7F89480918B0190918C01A091A3
:1003E0008D01B0918E012FBF4091350250913602A0
:1003F00060913702709138028C019D01041B150B2E
:10040000260B370BB901A801403D57406105710526
:10041000A0F480913D02C05CDE4F0FB6F894DEBFC1
:100420000FBECDBFDF91CF911F910F91FF90EF9045
:10043000BF90AF909F908F900895809335029093D6
:100440003602A0933702B093380210923002109215
:100450002F0210922E0210922D0210922C0262E0B6
:10046000809131020E944E0161E070E080E090E0F6
:100470000E94A40161E0809131020E944E018091AE
:10048000310290E0FC01E458FF4F2491FC01E25559
:10049000FF4F3491FC01E656FF4FE491EE23D9F073
:1004A000222359F0233009F44BC008F03EC021301C
:1004B00009F44CC0223009F44DC0F0E0EE0FFF1FEC
:1004C000EE58FF4FA591B4918FB7F894EC91309509
:1004D0003E233C938FBF809132028551823008F0D9
:1004E00046C08BE291E10197F1F762E08091310221
:1004F0000E944E0180913E0290E08230910538F0DA
:10050000880F991F880F991F05970197F1F7F894A5
:1005100080E00E9416016F3F7F4F8F4F9F4F71F514
:1005200010923D02789480E076CF2730B1F02830E9
:10053000D1F0243009F0C1CF809180008F7D03C0BD
:10054000809180008F7780938000B7CF84B58F77BC
:1005500084BDB3CF84B58F7DFBCF8091B0008F7702
:100560008093B000AACF8091B0008F7DF9CF64E175
:1005700070E080E090E00E94A401B7CF81E00E948B
:1005800016016F3F7F4F8F4F9F4F51F2CE01019663
:100590007C015E019FEBA91A9EEFB90A870180E0FA
:1005A0000E941601F801608371838283938381E046
:1005B0000E941601F8016483758386839783085F20
:1005C0001F4FA016B10659F7789430E020E0F701EC
:1005D00080809180A280B38044815581668177813B
:1005E000FFEF8F169F06AF06BF0631F04F3F0FEFAC
:1005F00050076007700719F410923D0294CFF9017B
:1006000083E0F595E7958A95E1F7E45DFD4F8081FC
:10061000880F84169506A606B70618F180832F5F0B
:100620003F4F18E0E10EF11C2832310581F6409170
:10063000300220912C0280912D02280F3327331F86
:1006400080912E02280F311D80912F02820F932F4F
:10065000911D99274817190679F681E080933D028C
:10066000DACE8160DBCFAF92BF92CF92DF92EF9272
:10067000FF920F931F93CF93DF936C017B018B014C
:10068000040F151FEB015E01AE18BF08C017D1079C
:1006900059F06991D601ED91FC910190F081E02D26
:1006A000C6010995892B79F7C501DF91CF911F917B
:1006B0000F91FF90EF90DF90CF90BF90AF90089593
:1006C000FC01538D448D252F30E0842F90E0821B58
:1006D000930B541710F0CF96089501970895FC01DD
:1006E000918D828D981761F0A28DAE0FBF2FB11D35
:1006F0005D968C91928D9F5F9F73928F90E008958D
:100700008FEF9FEF0895FC01918D828D981731F046
:10071000828DE80FF11D858D90E008958FEF9FEF9A
:100720000895FC01918D228D892F90E0805C9F4F70
:10073000821B91098F73992708958FE891E00E9499
:10074000910321E0892B09F420E0822F089580E0B5
:1007500090E0892B29F00E949D0381110C940000E8
:100760000895FC01A48DA80FB92FB11DA35ABF4F46
:100770002C91848D90E001968F739927848FA689A0
:10078000B7892C93A089B1898C91837080648C93F4
:10079000938D848D981306C00288F389E02D8081A3
:1007A0008F7D80830895EF92FF920F931F93CF93D5
:1007B000DF93EC0181E0888F9B8D8C8D98131AC09C
:1007C000E889F989808185FF15C09FB7F894EE8983
:1007D000FF896083E889F9898081837080648083E0
:1007E0009FBF81E090E0DF91CF911F910F91FF902B
:1007F000EF900895F62E0B8D10E00F5F1F4F0F73D3
:100800001127E02E8C8D8E110CC00FB607FCFACF8D
:10081000E889F989808185FFF5CFCE010E94B10377
:10082000F1CFEB8DEC0FFD2FF11DE35AFF4FF0825E
:100830009FB7F8940B8FEA89FB8980818062CFCFC4
:10084000CF93DF93EC01888D8823B9F0AA89BB8907
:10085000E889F9898C9185FD03C0808186FD0DC0F2
:100860000FB607FCF7CF8C9185FFF2CF808185FF13
:10087000EDCFCE010E94B103E9CFDF91CF91089572
:10088000FC0101900020E9F73197AF01481B590B9B
:10089000BC018FE891E00C9433038F929F92AF924A
:1008A000BF920F931F93CF93DF93CDB7DEB7A1977E
:1008B0000FB6F894DEBF0FBECDBF19A2423008F4C8
:1008C0004AE08E010F5D1F4F842E912CB12CA12C7C
:1008D000A50194010E942F0CE62FB901CA01EA304C
:1008E000F4F4E05DD801EE938D01232B242B252B0E
:1008F00079F790E080E0109719F0CD010E94400454
:10090000A1960FB6F894DEBF0FBECDBFDF91CF9199
:100910001F910F91BF90AF909F908F900895E95CC9
:10092000E1CFCF93DF930E944004EC0182E191E09C
:100930000E9440048C0F9D1FDF91CF9108954F922C
:100940005F926F927F928F929F92AF92BF92CF925F
:10095000DF92EF92FF920F931F93CF936B017C0175
:10096000742EAC019B010E94150C882399F085E13F
:1009700091E0CF911F910F91FF90EF90DF90CF907A
:10098000BF90AF909F908F907F906F905F904F90AF
:100990000C94400446015701E894B7F82FEF3FEF5D
:1009A0004FE75FE7C501B4010E94150C81110DC02E
:1009B0002FEF3FEF4FE75FE7C501B4010E94050A43
:1009C00018161CF489E191E0D4CF2FEF3FEF4FE7E9
:1009D0005FE4C701B6010E945D0B18161CF48DE19F
:1009E00091E0C7CF2FEF3FEF4FE75FECC701B601B4
:1009F0000E94050A87FDF3CF20E030E0A901C7017E
:100A0000B6010E94050A10E000E087FF0AC06DE20F
:100A10008FE891E00E94D3038C01F7FAF094F7F885
:100A2000F094C0E060E070E080E09FE37C1641F06D
:100A300020E030E040E251E40E940A0ACF5FF6CFA6
:100A4000A70196010E9499092B013C010E947C0A92
:100A50004B015C014AE00E944D047C01E00EF11E56
:100A6000CC23C1F1C501B4010E94AB0A9B01AC01CA
:100A7000C301B2010E9498094B015C016EE28FE84C
:100A800091E00E94D303E80EF91EC15018F120E056
:100A900030E040E251E4C501B4010E94620B2B0139
:100AA0003C010E947C0A4B01B12CA12C4AE0C501FB
:100AB000B4010E944D04E80EF91EC501B4010E9464
:100AC000AB0A9B01AC01C301B2010E9498094B0122
:100AD0005C01DBCFC701CF911F910F91FF90EF9089
:100AE000DF90CF90BF90AF909F908F907F906F904E
:100AF0005F904F9008951F920F920FB60F9211249E
:100B00002F933F938F939F93AF93BF9380918B01CC
:100B100090918C01A0918D01B0918E013091860150
:100B200023E0230F2D3758F50196A11DB11D209309
:100B3000860180938B0190938C01A0938D01B093DB
:100B40008E018091870190918801A0918901B091D7
:100B50008A010196A11DB11D8093870190938801A0
:100B6000A0938901B0938A01BF91AF919F918F911A
:100B70003F912F910F900FBE0F901F90189526E870
:100B8000230F0296A11DB11DD2CF1F920F920FB657
:100B90000F9211242F933F934F935F936F937F9303
:100BA0008F939F93AF93BF93EF93FF938FE891E061
:100BB0000E94B103FF91EF91BF91AF919F918F91EF
:100BC0007F916F915F914F913F912F910F900FBE49
:100BD0000F901F9018951F920F920FB60F9211242D
:100BE0002F938F939F93EF93FF93E0919F01F09149
:100BF000A0018081E091A501F091A60182FD1BC0BA
:100C000090818091A8018F5F8F732091A901821735
:100C100041F0E091A801F0E0E157FE4F958F8093FD
:100C2000A801FF91EF919F918F912F910F900FBE8F
:100C30000F901F9018958081F4CFEFE8F1E01382B8
:100C4000128288EE93E0A0E0B0E084839583A683CF
:100C5000B78384E091E09183808385EC90E0958771
:100C6000848784EC90E09787868780EC90E0918B76
:100C7000808B81EC90E0938B828B82EC90E0958B63
:100C8000848B86EC90E0978B868B118E128E138E60
:100C9000148EACE2B2E088E015968C93159786E14D
:100CA00016968C931697E6EBF0E0E4911796EC938A
:100CB0001797E2EAF0E0E4911896EC93189740E871
:100CC0005EE360E070E01D964D935D936D937C93C1
:100CD00050970895CF93DF93CDB7DEB72C970FB61B
:100CE000F894DEBF0FBECDBF789484B5826084BD1A
:100CF00084B5816084BD85B5826085BD85B5816020
:100D000085BD80916E00816080936E00109281009D
:100D10008091810082608093810080918100816058
:100D20008093810080918000816080938000809119
:100D3000B10084608093B1008091B00081608093A5
:100D4000B00080917A00846080937A0080917A006C
:100D5000826080937A0080917A00816080937A002B
:100D600080917A00806880937A001092C100E091AF
:100D70009F01F091A00182E08083E0919B01F091BE
:100D80009C011082E0919D01F0919E018FEC808387
:100D90001092A701E091A301F091A40186E0808365
:100DA000E091A101F091A201808180618083E091B6
:100DB000A101F091A201808188608083E091A1016E
:100DC000F091A201808180688083E091A101F0917F
:100DD000A20180818F7D808381E291E00E94910455
:100DE00062E0809131020E944E012FB7F894809109
:100DF0008B0190918C01A0918D01B0918E012FBF3C
:100E0000805D9740A109B109809335029093360225
:100E1000A0933702B093380287E380933E0260EDDF
:100E200077E080E090E00E94A4010E94D601882330
:100E300051F0809132028B3030F08D3058F0855176
:100E4000823008F466C0812C912C90ECA92E9FE78B
:100E5000B92E1EC060912D0270E090E080E00E94EB
:100E6000AD0A2DEC3CEC4CEC5DE30E94620B6B0197
:100E70007C0160912C0270E090E080E00E94AD0A5D
:100E80009B01AC01C701B6010E9499094B015C01AD
:100E90000E94D601882309F44EC080E00E948C0095
:100EA00069877A878B879C870E94D601882309F4FB
:100EB0004BC081E00E948C002B013C01A5019401F4
:100EC000C501B4010E94150C811112C029853A8513
:100ED0004B855C85CA01B9010E94150C811108C0BF
:100EE000A3019201C301B2010E94150C882399F15C
:100EF0008DE291E00E949104A0E0B0E0AB2B09F4F8
:100F00008ECF0E949D03882309F489CF0E940000A0
:100F100086CF60912C0270912D0276276727762765
:100F200090E080E00E94AB0A2DEC3CEC4CEC5DE3E1
:100F30000E94620BABCF80E090E0A0ECBFE7898716
:100F40009A87AB87BC87B0CF412C512C80EC682EA0
:100F50008FE7782EB3CF20E030E048E852E4C301B9
:100F6000B2010E9498092AE939E949E95FE30E9440
:100F7000620B6B017C0120E030E044E752E4C301E6
:100F8000B2010E9499099B01AC01C701B6010E9400
:100F900099096B017C0122E133E840EC5DE3C50176
:100FA000B4010E94620B9B01AC01C701B6010E9413
:100FB000990920E030E040E05FE30E94620B6B01A2
:100FC0007C0120E030E04EE952E40E945D0B1816EF
:100FD0000CF017C1A3019201C301B2010E94620B80
:100FE00069837A838B839C83A5019401C501B40135
:100FF0000E94620B6D837E838F83988721E133E2A9
:1010000043E050E4C301B2010E94620B29E134E8DD
:1010100049E252E40E9498096B017C0126E13BE41D
:1010200042E251E4C501B4010E94620B9B01AC0194
:10103000C701B6010E9499096B017C0128E436E2E0
:1010400046E65EEBC301B2010E94620BA50194016A
:101050000E94620B9B01AC01C701B6010E94990975
:101060006B017C0120EE3FE040EE5BEB69817A8111
:101070008B819C810E94620B9B01AC01C701B60170
:101080000E9499096B017C0128EF37E840E65DEB8F
:101090006D817E818F8198850E94620B9B01AC01DE
:1010A000C701B6010E9499096B017C012CEA3DE061
:1010B00041EA5AE369817A818B819C810E94620BAB
:1010C000A50194010E94620B9B01AC01C701B6010E
:1010D0000E9499096B017C0128EC3FE84FE55AE337
:1010E000C301B2010E94620B2D813E814F81588560
:1010F0000E94620B9B01AC01C701B6010E949909D5
:101100006B017C0121EF3BE845E056EB69817A8178
:101110008B819C810E94620B2D813E814F8158857D
:101120000E94620B9B01AC01C701B6010E949909A4
:101130006B017C0120E030E040E551E4C501B401E1
:101140000E94050A87FF99C020E030E040EA52E49F
:10115000C301B2010E945D0B87FD8FC020E030E02B
:1011600040EE52E4C301B2010E94050A18160CF4C5
:10117000D3C0A501940160E070E080E591E40E9495
:10118000980920E030E040E85EE30E94620B6D8346
:101190007E838F83988720E030E04EEB52E4C301DA
:1011A000B2010E94980969837A838B839C8320E033
:1011B00030E0A9010E945D0B18160CF053C0298184
:1011C0003A814B815C8160E070E088E891E40E94A4
:1011D00098092EE33DEE40E75DE30E94620B0E941A
:1011E000D50B9B01AC016D817E818F8198850E941A
:1011F000620B9B01AC01C701B6010E9498096B010B
:101200007C018DE491E00E94400442E0C501B401FC
:101210000E949F0488E591E00E9440048CE591E0E3
:101220000E94400442E069857A858B859C850E94F6
:101230009F048AE691E00E94400442E0C301B201AB
:101240000E949F048FE691E00E94400484E791E0B1
:101250000E94400442E0C701B6010E949F0481E859
:1012600091E048CE20E030E048E851E469817A819D
:101270008B819C810E949909ACCF20E030E04AEA42
:1012800052E4C501B4010E945D0B18160CF0B9CFF1
:1012900020E030E040EA52E4C301B2010E945D0B5D
:1012A00087FDAFCF20E030E04EEA52E4C301B20147
:1012B0000E94050A18160CF4A4CF20E030E04AEA98
:1012C00052E4C501B4010E9498092DEC3CEC4CECB1
:1012D0005DE30E94620B69837A838B839C83A30105
:1012E000920160E070E08EEA92E40E9498092DEC91
:1012F0003CEC4CE45EE30E94620B9B01AC01698113
:101300007A818B819C810E94620B9B01AC01C70199
:10131000B6010E94990973CF20E030E04AEA52E416
:10132000C501B4010E945D0B18160CF4BBCF69CF48
:101330005058BB27AA270E94B0090C94230B0E9487
:10134000150B38F00E941C0B20F039F49F3F19F464
:1013500026F40C94120B0EF4E095E7FB0C940C0BA6
:10136000E92F0E94340B58F3BA17620773078407FA
:10137000950720F079F4A6F50C94560B0EF4E09541
:101380000B2EBA2FA02D0B01B90190010C01CA013F
:10139000A0011124FF27591B99F0593F50F4503EEA
:1013A00068F11A16F040A22F232F342F4427585FDC
:1013B000F3CF469537952795A795F0405395C9F7F4
:1013C0007EF41F16BA0B620B730B840BBAF09150AC
:1013D000A1F0FF0FBB1F661F771F881FC2F70EC04B
:1013E000BA0F621F731F841F48F48795779567951E
:1013F000B795F7959E3F08F0B0CF9395880F08F00A
:101400009927EE0F9795879508950E94E80A08F4AA
:1014100081E008950E941E0A0C94230B0E941C0B6D
:1014200058F00E94150B40F029F45F3F29F00C940E
:101430000C0B51110C94570B0C94120B0E94340B93
:1014400068F39923B1F3552391F3951B550BBB27F3
:10145000AA2762177307840738F09F5F5F4F220F38
:10146000331F441FAA1FA9F335D00E2E3AF0E0E82F
:1014700032D091505040E695001CCAF72BD0FE2F79
:1014800029D0660F771F881FBB1F2617370748070D
:10149000AB07B0E809F0BB0B802DBF01FF279358C5
:1014A0005F4F3AF09E3F510578F00C940C0B0C9472
:1014B000570B5F3FE4F3983ED4F386957795679595
:1014C000B795F7959F5FC9F7880F911D96958795FA
:1014D00097F90895E1E0660F771F881FBB1F621719
:1014E00073078407BA0720F0621B730B840BBA0BD7
:1014F000EE1F88F7E09508950E943C0B88F09F57F7
:1015000098F0B92F9927B751B0F0E1F0660F771F27
:10151000881F991F1AF0BA95C9F714C0B13091F01D
:101520000E94560BB1E008950C94560B672F782F4C
:101530008827B85F39F0B93FCCF3869577956795E2
:10154000B395D9F73EF490958095709561957F4F4E
:101550008F4F9F4F0895E89409C097FB3EF49095F4
:101560008095709561957F4F8F4F9F4F9923A9F07C
:10157000F92F96E9BB279395F6958795779567950B
:10158000B795F111F8CFFAF4BB0F11F460FF1BC04F
:101590006F5F7F4F8F4F9F4F16C0882311F096E9E2
:1015A00011C0772321F09EE8872F762F05C0662390
:1015B00071F096E8862F70E060E02AF09A95660F49
:1015C000771F881FDAF7880F9695879597F9089502
:1015D000990F0008550FAA0BE0E8FEEF1616170644
:1015E000E807F907C0F012161306E407F50798F0AC
:1015F000621B730B840B950B39F40A2661F0232BC5
:10160000242B252B21F408950A2609F4A140A69540
:101610008FEF811D811D089597F99F6780E870E025
:1016200060E008959FEF80EC089500240A94161658
:10163000170618060906089500240A9412161306C0
:10164000140605060895092E0394000C11F488234E
:1016500052F0BB0F40F4BF2B11F460FF04C06F5F6A
:101660007F4F8F4F9F4F089557FD9058440F551F40
:1016700059F05F3F71F04795880F97FB991F61F014
:101680009F3F79F087950895121613061406551F8B
:10169000F2CF4695F1DF08C0161617061806991FF7
:1016A000F1CF86957105610508940895E894BB27EC
:1016B00066277727CB0197F908950E94E80A08F476
:1016C0008FEF08950E94750B0C94230B0E94150B4D
:1016D00038F00E941C0B20F0952311F00C940C0B99
:1016E0000C94120B11240C94570B0E94340B70F3C2
:1016F000959FC1F3950F50E0551F629FF001729FB7
:10170000BB27F00DB11D639FAA27F00DB11DAA1FC5
:10171000649F6627B00DA11D661F829F2227B00D12
:10172000A11D621F739FB00DA11D621F839FA00D9D
:10173000611D221F749F3327A00D611D231F849FED
:10174000600D211D822F762F6A2F11249F57504044
:101750009AF0F1F088234AF0EE0FFF1FBB1F661FBF
:10176000771F881F91505040A9F79E3F510580F088
:101770000C940C0B0C94570B5F3FE4F3983ED4F39E
:10178000869577956795B795F795E7959F5FC1F72C
:10179000FE2B880F911D9695879597F9089519F45A
:1017A00016F40C94120B0C941A0C0E943C0BB8F318
:1017B0009923C9F3B6F39F57550B87FF0E94280C56
:1017C0000024A0E640EA900180585695979528F4A9
:1017D000805C660F771F881F20F0261737074807A1
:1017E00030F4621B730B840B202931294A2BA695F8
:1017F00017940794202531254A2758F7660F771F3D
:10180000881F20F026173707480730F4620B730B48
:10181000840B200D311D411DA09581F7B901842F46
:101820009158880F9695879508950E94E80A880B2D
:10183000990B08959F3F31F0915020F4879577954B
:101840006795B795880F911D9695879597F9089597
:1018500091505040660F771F881FD2F70895A1E27C
:101860001A2EAA1BBB1BFD010DC0AA1FBB1FEE1F1A
:10187000FF1FA217B307E407F50720F0A21BB30B65
:10188000E40BF50B661F771F881F991F1A9469F7E1
:1018900060957095809590959B01AC01BD01CF013D
:1018A0000895EE0FFF1F0590F491E02D0994F89430
:1018B000FFCF00000000D303330360032004910333
:1018C0006F0383030D0A006E616E00696E66006F20
:1018D0007666004448547878207465737421004615
:1018E00061696C656420746F207265616420667242
:1018F0006F6D204448542073656E736F72210048E9
:10190000756D69646974793A200020250900546571
:101910006D70657261747572653A2000202A4320EB
:1019200000202A4609004865617420696E64657864
:081930003A2000202A460000C5
:107E0000112484B714BE81FFF0D085E080938100F7
:107E100082E08093C00088E18093C10086E0809377
:107E2000C20080E18093C4008EE0C9D0259A86E02C
:107E300020E33CEF91E0309385002093840096BBD3
:107E4000B09BFECF1D9AA8958150A9F7CC24DD24C4
:107E500088248394B5E0AB2EA1E19A2EF3E0BF2EE7
:107E6000A2D0813461F49FD0082FAFD0023811F036
:107E7000013811F484E001C083E08DD089C08234E0
:107E800011F484E103C0853419F485E0A6D080C0E4
:107E9000853579F488D0E82EFF2485D0082F10E0AE
:107EA000102F00270E291F29000F111F8ED06801E7
:107EB0006FC0863521F484E090D080E0DECF843638
:107EC00009F040C070D06FD0082F6DD080E0C81688
:107ED00080E7D80618F4F601B7BEE895C0E0D1E017
:107EE00062D089930C17E1F7F0E0CF16F0E7DF06D8
:107EF00018F0F601B7BEE89568D007B600FCFDCFD4
:107F0000A601A0E0B1E02C9130E011968C91119780
:107F100090E0982F8827822B932B1296FA010C0160
:107F200087BEE89511244E5F5F4FF1E0A038BF0790
:107F300051F7F601A7BEE89507B600FCFDCF97BE46
:107F4000E89526C08437B1F42ED02DD0F82E2BD052
:107F50003CD0F601EF2C8F010F5F1F4F84911BD097
:107F6000EA94F801C1F70894C11CD11CFA94CF0C13
:107F7000D11C0EC0853739F428D08EE10CD085E9AC
:107F80000AD08FE07ACF813511F488E018D01DD067
:107F900080E101D065CF982F8091C00085FFFCCF94
:107FA0009093C60008958091C00087FFFCCF809118
:107FB000C00084FD01C0A8958091C6000895E0E648
:107FC000F0E098E1908380830895EDDF803219F02E
:107FD00088E0F5DFFFCF84E1DECF1F93182FE3DFCA
:107FE0001150E9F7F2DF1F91089580E0E8DFEE27F6
:047FF000FF270994CA
:027FFE00040479
:00000001FF
